{
  "contractName": "DexBot",
  "abi": [
    {
      "constant": true,
      "inputs": [],
      "name": "number",
      "outputs": [
        {
          "name": "",
          "type": "uint256"
        }
      ],
      "payable": false,
      "stateMutability": "view",
      "type": "function"
    },
    {
      "inputs": [
        {
          "name": "initialNumber",
          "type": "uint256"
        }
      ],
      "payable": false,
      "stateMutability": "nonpayable",
      "type": "constructor"
    },
    {
      "constant": false,
      "inputs": [
        {
          "name": "newNumber",
          "type": "uint256"
        }
      ],
      "name": "setNumber",
      "outputs": [],
      "payable": false,
      "stateMutability": "nonpayable",
      "type": "function"
    }
  ],
  "bytecode": "0x608060405234801561001057600080fd5b5060405160208061012583398101806040528101908080519060200190929190505050806000819055505060dc806100496000396000f3006080604052600436106049576000357c0100000000000000000000000000000000000000000000000000000000900463ffffffff1680633fb5c1cb14604e5780638381f58a146078575b600080fd5b348015605957600080fd5b5060766004803603810190808035906020019092919050505060a0565b005b348015608357600080fd5b50608a60aa565b6040518082815260200191505060405180910390f35b8060008190555050565b600054815600a165627a7a72305820ee34f7d41fe1c5a65e756241d439c33e5e1608a2d775ae0c79ce8e4e3fa5956d0029",
  "source": "pragma solidity ^0.4.24;\n\ncontract DexBot {\n    uint public number;\n\n    constructor(uint initialNumber) public {\n        number = initialNumber;\n    }\n\n    function setNumber(uint newNumber) public {\n        number = newNumber;\n    }\n}\n",
  "sourcePath": "/Users/mathieu/go/src/github.com/mathieugilbert/aabot/ethereum/contracts/DexBot.sol",
  "compiler": {
    "name": "solc",
    "version": "0.4.24+commit.e67f0147.Emscripten.clang"
  },
  "schemaVersion": "2.0.0",
  "updatedAt": "2018-08-07T17:29:28.746Z"
}